Microchip MPLAB XC8 Compiler V1.12 ()

Linker command line:

--edf=/Applications/microchip/xc8/v1.12/dat/en_msgs.txt -cs \
  -h+dist/default/debug/marco_clock.X.debug.sym -z -Q18F25K80 -ol.obj \
  -Mdist/default/debug/marco_clock.X.debug.map -E1 -ver=XC8 \
  -ACODE=00h-07FFFh -ACONST=00h-07FFFh -ASMALLCONST=0F00h-0FFFhx113 \
  -AMEDIUMCONST=0F00h-07FFFh -ACOMRAM=01h-05Fh -AABS1=00h-0E40h \
  -ABIGRAM=01h-0E40h -ARAM=060h-0FFh,0100h-01FFhx13,0E00h-0E40h \
  -ABANK0=060h-0FFh -ABANK1=0100h-01FFh -ABANK2=0200h-02FFh \
  -ABANK3=0300h-03FFh -ABANK4=0400h-04FFh -ABANK5=0500h-05FFh \
  -ABANK6=0600h-06FFh -ABANK7=0700h-07FFh -ABANK8=0800h-08FFh \
  -ABANK9=0900h-09FFh -ABANK10=0A00h-0AFFh -ABANK11=0B00h-0BFFh \
  -ABANK12=0C00h-0CFFh -ABANK13=0D00h-0DFFh -ABANK14=0E00h-0E40h \
  -ASFR=0E41h-0EFFh,0F00h-0F5Fh,0F60h-0FFCh \
  -preset_vec=00h,intcode=08h,intcodelo,powerup,init,end_init \
  -pramtop=0F00h -psmallconst=SMALLCONST -pmediumconst=MEDIUMCONST \
  -pconst=CONST -AFARRAM=00h-00h -ACONFIG=0300000h-030000Dh -pconfig=CONFIG \
  -AIDLOC=0200000h-0200007h -pidloc=IDLOC -AEEDATA=0F00000h-0F003FFh \
  -peeprom_data=EEDATA \
  -prdata=COMRAM,nvrram=COMRAM,nvbit=COMRAM,rbss=COMRAM,rbit=COMRAM \
  -pfarbss=FARRAM,fardata=FARRAM \
  -pintsave_regs=BIGRAM,bigbss=BIGRAM,bigdata=BIGRAM -pbss=RAM \
  -pidata=CODE,irdata=CODE,ibigdata=CODE,ifardata=CODE /tmp/cgtCluetT.obj \
  dist/default/debug/marco_clock.X.debug.obj 

Object code version is 3.10

Machine type is 18F25K80

Call graph: (short form)




                Name                               Link     Load   Length Selector   Space Scale
/tmp/cgtCluetT.obj
                end_init                            4BE      4BE        4        4       0
                reset_vec                             0        0        6        0       0
                idloc                            200000   200000        8   200000       0
                config                           300000   300000        E   300000       0
dist/default/debug/marco_clock.X.debug.obj
                intcode                               8        8      4B6        4       0
                mediumconst                        79AA     79AA      656     3CD5       0
                text29                             1C36     1C36       CE        4       0
                text28                             23B6     23B6       48     11B6       0
                text27                             24C6     24C6        E     11B6       0
                text25                             2098     2098       A8        4       0
                text24                             1DCA     1DCA       BC        4       0
                text23                             24E2     24E2        2     1271       0
                text22                             249E     249E       1A     11B6       0
                text21                             24B8     24B8        E     11B6       0
                text20                             1950     1950      128        4       0
                text19                             1A78     1A78       F0        4       0
                text18                             17C2     17C2      18E        4       0
                text17                             2140     2140       92        4       0
                text16                              FFC      FFC      2E0        4       0
                text15                             1D04     1D04       C6        4       0
                text14                             2242     2242       6E        4       0
                text13                              AB6      AB6      546        4       0
                text12                             1F3A     1F3A       B2        4       0
                text11                             22B0     22B0       5E        4       0
                text10                              4C2      4C2      5F4        4       0
                text9                              12DC     12DC      2A6        4       0
                text8                              24D4     24D4        A     11B6       0
                text7                              1B68     1B68       CE        4       0
                text6                              2432     2432       2E     11B6       0
                text5                              23FE     23FE       34     11B6       0
                text4                              2484     2484       1A     11B6       0
                text3                              1FEC     1FEC       AC        4       0
                text2                              236C     236C       4A     11B6       0
                text1                              2460     2460       24     11B6       0
                text0                              1582     1582      240        4       0
                cstackCOMRAM                          1        1       2C        1       1
                cstackBANK0                          E1       E1       1F       60       1
                cstackBANK1                         170      170       12      100       1
                bssBANK3                            300      300      100      300       1
                bssBANK2                            200      200      100      200       1
                dataBANK1                           100      100       70      100       1
                bssBANK1                            182      182       10      100       1
                dataBANK0                            60       60       5D       60       1
                bssBANK0                             BD       BD       24       60       1
                dataCOMRAM                           42       42        3        1       1
                bssCOMRAM                            2D       2D       15        1       1
                cinit                              1E86     1E86       B4        4       0
                idataBANK1                         21D2     21D2       70        4       0
                idataBANK0                         230E     230E       5D        4       0
                idataCOMRAM                        24DE     24DE        3     11B6       0

TOTAL           Name                               Link     Load   Length     Space
        CLASS   CODE           
                end_init                            4BE      4BE        4         0
                intcode                               8        8      4B6         0
                reset_vec                             0        0        6         0
                text29                             1C36     1C36       CE         0
                text28                             23B6     23B6       48         0
                text27                             24C6     24C6        E         0
                text25                             2098     2098       A8         0
                text24                             1DCA     1DCA       BC         0
                text23                             24E2     24E2        2         0
                text22                             249E     249E       1A         0
                text21                             24B8     24B8        E         0
                text20                             1950     1950      128         0
                text19                             1A78     1A78       F0         0
                text18                             17C2     17C2      18E         0
                text17                             2140     2140       92         0
                text16                              FFC      FFC      2E0         0
                text15                             1D04     1D04       C6         0
                text14                             2242     2242       6E         0
                text13                              AB6      AB6      546         0
                text12                             1F3A     1F3A       B2         0
                text11                             22B0     22B0       5E         0
                text10                              4C2      4C2      5F4         0
                text9                              12DC     12DC      2A6         0
                text8                              24D4     24D4        A         0
                text7                              1B68     1B68       CE         0
                text6                              2432     2432       2E         0
                text5                              23FE     23FE       34         0
                text4                              2484     2484       1A         0
                text3                              1FEC     1FEC       AC         0
                text2                              236C     236C       4A         0
                text1                              2460     2460       24         0
                text0                              1582     1582      240         0
                cinit                              1E86     1E86       B4         0
                idataBANK1                         21D2     21D2       70         0
                idataBANK0                         230E     230E       5D         0
                idataCOMRAM                        24DE     24DE        3         0

        CLASS   CONST          

        CLASS   SMALLCONST     

        CLASS   MEDIUMCONST    
                mediumconst                        79AA     79AA      656         0

        CLASS   COMRAM         
                cstackCOMRAM                          1        1       2C         1
                dataCOMRAM                           42       42        3         1
                bssCOMRAM                            2D       2D       15         1

        CLASS   ABS1           

        CLASS   BIGRAM         

        CLASS   RAM            

        CLASS   BANK0          
                cstackBANK0                          E1       E1       1F         1
                dataBANK0                            60       60       5D         1
                bssBANK0                             BD       BD       24         1

        CLASS   BANK1          
                cstackBANK1                         170      170       12         1
                dataBANK1                           100      100       70         1
                bssBANK1                            182      182       10         1

        CLASS   BANK2          
                bssBANK2                            200      200      100         1

        CLASS   BANK3          
                bssBANK3                            300      300      100         1

        CLASS   BANK4          

        CLASS   BANK5          

        CLASS   BANK6          

        CLASS   BANK7          

        CLASS   BANK8          

        CLASS   BANK9          

        CLASS   BANK10         

        CLASS   BANK11         

        CLASS   BANK12         

        CLASS   BANK13         

        CLASS   BANK14         

        CLASS   SFR            

        CLASS   FARRAM         

        CLASS   CONFIG         
                config                           300000   300000        E         0

        CLASS   IDLOC          
                idloc                            200000   200000        8         0

        CLASS   EEDATA         



SEGMENTS        Name                           Load    Length   Top    Selector   Space  Class

                reset_vec                      000000  000006  000006         0       0  CODE    
                cstackCOMRAM                   000001  000044  000045         1       1  COMRAM  
                intcode                        000008  002363  00236B         4       0  CODE    
                dataBANK0                      000060  0000A0  000100        60       1  BANK0   
                dataBANK1                      000100  000092  000192       100       1  BANK1   
                bssBANK2                       000200  000100  000300       200       1  BANK2   
                bssBANK3                       000300  000100  000400       300       1  BANK3   
                text2                          00236C  000175  0024E1      11B6       0  CODE    
                text23                         0024E2  000002  0024E4      1271       0  CODE    
                mediumconst                    0079AA  000656  008000      3CD5       0  MEDIUMCO
                idloc                          200000  000008  200008    200000       0  IDLOC   
                config                         300000  00000E  30000E    300000       0  CONFIG  


UNUSED ADDRESS RANGES

        Name                Unused          Largest block    Delta
        BANK1            000192-0001FF               6E
        BANK10           000A00-000AFF              100
        BANK11           000B00-000BFF              100
        BANK12           000C00-000CFF              100
        BANK13           000D00-000DFF              100
        BANK14           000E00-000E40               41
        BANK4            000400-0004FF              100
        BANK5            000500-0005FF              100
        BANK6            000600-0006FF              100
        BANK7            000700-0007FF              100
        BANK8            000800-0008FF              100
        BANK9            000900-0009FF              100
        BIGRAM           000045-00005F               1B
                         000192-0001FF               6E
                         000400-000E40              A41
        CODE             000006-000007                2
                         00236B-00236B                1
                         0024E1-0024E1                1
                         0024E4-0079A9             54C6
        COMRAM           000045-00005F               1B
        CONST            000006-000007                2
                         00236B-00236B                1
                         0024E1-0024E1                1
                         0024E4-0079A9             54C6
        EEDATA           F00000-F003FF              400
        MEDIUMCONST      00236B-00236B                1
                         0024E1-0024E1                1
                         0024E4-0079A9             54C6
        RAM              000192-0001FF               6E
                         000400-000E40              100
        SFR              000E41-000FFC               BF
        SMALLCONST       00236B-00236B                1
                         0024E1-0024E1                1
                         0024E4-0079A9              100

                                  Symbol Table

?_ChipSelect                  cstackCOMRAM 00001D
?_CommandWriteHT1632C         cstackCOMRAM 000023
?_OutputA_74164               cstackCOMRAM 00001C
?_Read_b_eep                  cstackCOMRAM 00001C
?_SetPWM                      cstackCOMRAM 00002B
?_WriteHT1632C                cstackCOMRAM 000023
?_Write_b_eep                 cstackCOMRAM 000001
?___awdiv                     cstackCOMRAM 00001C
?___awmod                     cstackCOMRAM 00001C
?_draw_bear                   cstackBANK0  0000F8
?_draw_char                   cstackCOMRAM 000029
?_draw_row                    cstackCOMRAM 000029
?_draw_str                    cstackBANK0  0000EF
?_memset                      cstackCOMRAM 00001C
?_rot                         cstackCOMRAM 00001C
ChipSelect@select             cstackCOMRAM 00001D
ChipSelect@tmp                cstackCOMRAM 000022
CommandWriteHT1632C@command   cstackCOMRAM 000023
CommandWriteHT1632C@i         cstackCOMRAM 00002A
CommandWriteHT1632C@j         cstackCOMRAM 000028
ISR@KB_REPEAT                 dataCOMRAM   000042
ISR@Up                        cstackCOMRAM 00001B
ISR@auto_repeat               bssCOMRAM    00003B
ISR@cnt                       bssCOMRAM    000037
ISR@cnt_ms                    bssCOMRAM    00003D
ISR@flankTime                 cstackCOMRAM 000019
ISR@msec                      bssBANK0     0000C5
OutputA_74164@x               cstackCOMRAM 00001C
Read_b_eep@badd               cstackCOMRAM 00001C
SetPWM@pwm                    cstackCOMRAM 00002B
WriteHT1632C@chip             cstackCOMRAM 000023
WriteHT1632C@data             cstackCOMRAM 000025
WriteHT1632C@i                cstackCOMRAM 000028
WriteHT1632C@myaddress        cstackCOMRAM 000024
WriteHT1632C@temp             cstackCOMRAM 000027
Write_b_eep@GIE_BIT_VAL       cstackCOMRAM 000005
Write_b_eep@badd              cstackCOMRAM 000001
Write_b_eep@bdat              cstackCOMRAM 000003
_ANCON0                       (abs)        000F5D
_ANCON1                       (abs)        000F5C
_Busy_eep                     text27       0024C6
_CLK_DELAY                    text23       0024E2
_ChipSelect                   text20       001950
_CommandWriteHT1632C          text3        001FEC
_EEADR                        (abs)        000F74
_EEADRH                       (abs)        000F75
_EECON1bits                   (abs)        000F7F
_EECON2                       (abs)        000F7E
_EEDATA                       (abs)        000F73
_INTCON                       (abs)        000FF2
_INTCON2                      (abs)        000FF1
_INTCONbits                   (abs)        000FF2
_ISR                          intcode      000008
_LATB                         (abs)        000F8A
_LATCbits                     (abs)        000F8B
_OutputA_74164                text22       00249E
_OutputCLK_Pulse              text21       0024B8
_PORTBbits                    (abs)        000F81
_Read_b_eep                   text4        002484
_SetHT1632C_As3208            text2        00236C
_SetPWM                       text1        002460
_T0CON                        (abs)        000FD5
_TRISB                        (abs)        000F93
_TRISC                        (abs)        000F94
_WPUB                         (abs)        000F5B
_WriteHT1632C                 text19       001A78
_Write_b_eep                  text28       0023B6
__CFG_BOREN$OFF               (abs)        000000
__CFG_CANMX$PORTC             (abs)        000000
__CFG_FOSC$HS2                (abs)        000000
__CFG_MCLRE$ON                (abs)        000000
__CFG_PLLCFG$ON               (abs)        000000
__CFG_PWRTEN$OFF              (abs)        000000
__CFG_SOSCSEL$DIG             (abs)        000000
__CFG_STVREN$ON               (abs)        000000
__CFG_WDTEN$OFF               (abs)        000000
__CFG_XINST$OFF               (abs)        000000
__HRAM                        (abs)        000000
__Habs1                       abs1         000000
__Hbank0                      bank0        000000
__Hbank1                      bank1        000000
__Hbank10                     bank10       000000
__Hbank11                     bank11       000000
__Hbank12                     bank12       000000
__Hbank13                     bank13       000000
__Hbank14                     bank14       000000
__Hbank2                      bank2        000000
__Hbank3                      bank3        000000
__Hbank4                      bank4        000000
__Hbank5                      bank5        000000
__Hbank6                      bank6        000000
__Hbank7                      bank7        000000
__Hbank8                      bank8        000000
__Hbank9                      bank9        000000
__Hbigbss                     bigbss       000000
__Hbigdata                    bigdata      000000
__Hbigram                     bigram       000000
__Hbss                        bss          000000
__HbssBANK0                   bssBANK0     000000
__HbssBANK1                   bssBANK1     000000
__HbssBANK2                   bssBANK2     000000
__HbssBANK3                   bssBANK3     000000
__HbssCOMRAM                  bssCOMRAM    000000
__Hcinit                      cinit        000000
__Hclrtext                    clrtext      000000
__Hcomram                     comram       000000
__Hconfig                     config       30000E
__Hconst                      const        000000
__HcstackBANK0                cstackBANK0  000000
__HcstackBANK1                cstackBANK1  000000
__HcstackCOMRAM               cstackCOMRAM 000000
__Hdata                       data         000000
__HdataBANK0                  dataBANK0    000000
__HdataBANK1                  dataBANK1    000000
__HdataCOMRAM                 dataCOMRAM   000000
__Heeprom_data                eeprom_data  000000
__Hend_init                   end_init     0004C2
__Hfarbss                     farbss       000000
__Hfardata                    fardata      000000
__Hibigdata                   ibigdata     000000
__Hidata                      idata        000000
__HidataBANK0                 idataBANK0   000000
__HidataBANK1                 idataBANK1   000000
__HidataCOMRAM                idataCOMRAM  000000
__Hidloc                      idloc        200008
__Hifardata                   ifardata     000000
__Hinit                       init         0004BE
__Hintcode                    intcode      0004BE
__Hintcode_body               intcode_body 000000
__Hintcodelo                  intcodelo    0004BE
__Hintentry                   intentry     000000
__Hintret                     intret       000000
__Hintsave_regs               intsave_regs 000000
__Hirdata                     irdata       000000
__Hmediumconst                mediumconst  008000
__Hnvbit                      nvbit        000000
__Hnvrram                     nvrram       000000
__Hparam                      rparam       000000
__Hpowerup                    powerup      0004BE
__Hram                        ram          000000
__Hramtop                     ramtop       000F00
__Hrbit                       rbit         000000
__Hrbss                       rbss         000000
__Hrdata                      rdata        000000
__Hreset_vec                  reset_vec    000006
__Hrparam                     rparam       000000
__Hsfr                        sfr          000000
__Hsmallconst                 smallconst   000000
__Hstruct                     struct       000000
__Htemp                       temp         000000
__Htext                       text         000000
__Htext0                      text0        000000
__Htext1                      text1        000000
__Htext10                     text10       000000
__Htext11                     text11       000000
__Htext12                     text12       000000
__Htext13                     text13       000000
__Htext14                     text14       000000
__Htext15                     text15       000000
__Htext16                     text16       000000
__Htext17                     text17       000000
__Htext18                     text18       000000
__Htext19                     text19       000000
__Htext2                      text2        000000
__Htext20                     text20       000000
__Htext21                     text21       000000
__Htext22                     text22       000000
__Htext23                     text23       000000
__Htext24                     text24       000000
__Htext25                     text25       000000
__Htext27                     text27       000000
__Htext28                     text28       000000
__Htext29                     text29       000000
__Htext3                      text3        000000
__Htext4                      text4        000000
__Htext5                      text5        000000
__Htext6                      text6        000000
__Htext7                      text7        000000
__Htext8                      text8        000000
__Htext9                      text9        000000
__LRAM                        (abs)        000001
__Labs1                       abs1         000000
__Lbank0                      bank0        000000
__Lbank1                      bank1        000000
__Lbank10                     bank10       000000
__Lbank11                     bank11       000000
__Lbank12                     bank12       000000
__Lbank13                     bank13       000000
__Lbank14                     bank14       000000
__Lbank2                      bank2        000000
__Lbank3                      bank3        000000
__Lbank4                      bank4        000000
__Lbank5                      bank5        000000
__Lbank6                      bank6        000000
__Lbank7                      bank7        000000
__Lbank8                      bank8        000000
__Lbank9                      bank9        000000
__Lbigbss                     bigbss       000000
__Lbigdata                    bigdata      000000
__Lbigram                     bigram       000000
__Lbss                        bss          000000
__LbssBANK0                   bssBANK0     000000
__LbssBANK1                   bssBANK1     000000
__LbssBANK2                   bssBANK2     000000
__LbssBANK3                   bssBANK3     000000
__LbssCOMRAM                  bssCOMRAM    000000
__Lcinit                      cinit        000000
__Lclrtext                    clrtext      000000
__Lcomram                     comram       000000
__Lconfig                     config       300000
__Lconst                      const        000000
__LcstackBANK0                cstackBANK0  000000
__LcstackBANK1                cstackBANK1  000000
__LcstackCOMRAM               cstackCOMRAM 000000
__Ldata                       data         000000
__LdataBANK0                  dataBANK0    000000
__LdataBANK1                  dataBANK1    000000
__LdataCOMRAM                 dataCOMRAM   000000
__Leeprom_data                eeprom_data  000000
__Lend_init                   end_init     0004BE
__Lfarbss                     farbss       000000
__Lfardata                    fardata      000000
__Libigdata                   ibigdata     000000
__Lidata                      idata        000000
__LidataBANK0                 idataBANK0   000000
__LidataBANK1                 idataBANK1   000000
__LidataCOMRAM                idataCOMRAM  000000
__Lidloc                      idloc        200000
__Lifardata                   ifardata     000000
__Linit                       init         0004BE
__Lintcode                    intcode      000008
__Lintcode_body               intcode_body 000000
__Lintcodelo                  intcodelo    0004BE
__Lintentry                   intentry     000000
__Lintret                     intret       000000
__Lintsave_regs               intsave_regs 000000
__Lirdata                     irdata       000000
__Lmediumconst                mediumconst  0079AA
__Lnvbit                      nvbit        000000
__Lnvrram                     nvrram       000000
__Lparam                      rparam       000000
__Lpowerup                    powerup      0004BE
__Lram                        ram          000000
__Lramtop                     ramtop       000F00
__Lrbit                       rbit         000000
__Lrbss                       rbss         000000
__Lrdata                      rdata        000000
__Lreset_vec                  reset_vec    000000
__Lrparam                     rparam       000000
__Lsfr                        sfr          000000
__Lsmallconst                 smallconst   000000
__Lstruct                     struct       000000
__Ltemp                       temp         000000
__Ltext                       text         000000
__Ltext0                      text0        000000
__Ltext1                      text1        000000
__Ltext10                     text10       000000
__Ltext11                     text11       000000
__Ltext12                     text12       000000
__Ltext13                     text13       000000
__Ltext14                     text14       000000
__Ltext15                     text15       000000
__Ltext16                     text16       000000
__Ltext17                     text17       000000
__Ltext18                     text18       000000
__Ltext19                     text19       000000
__Ltext2                      text2        000000
__Ltext20                     text20       000000
__Ltext21                     text21       000000
__Ltext22                     text22       000000
__Ltext23                     text23       000000
__Ltext24                     text24       000000
__Ltext25                     text25       000000
__Ltext27                     text27       000000
__Ltext28                     text28       000000
__Ltext29                     text29       000000
__Ltext3                      text3        000000
__Ltext4                      text4        000000
__Ltext5                      text5        000000
__Ltext6                      text6        000000
__Ltext7                      text7        000000
__Ltext8                      text8        000000
__Ltext9                      text9        000000
__S0                          (abs)        30000E
__S1                          (abs)        000400
___awdiv                      text24       001DCA
___awdiv@counter              cstackCOMRAM 000021
___awdiv@dividend             cstackCOMRAM 00001C
___awdiv@divisor              cstackCOMRAM 00001E
___awdiv@quotient             cstackCOMRAM 000023
___awdiv@sign                 cstackCOMRAM 000022
___awmod                      text25       002098
___awmod@counter              cstackCOMRAM 000021
___awmod@dividend             cstackCOMRAM 00001C
___awmod@divisor              cstackCOMRAM 00001E
___awmod@sign                 cstackCOMRAM 000022
__accesstop                   (abs)        000060
__activetblptr                (abs)        000002
__end_of_Busy_eep             text27       0024D4
__end_of_CLK_DELAY            text23       0024E4
__end_of_ChipSelect           text20       001A78
__end_of_CommandWriteHT1632C  text3        002098
__end_of_ISR                  intcode      0004BE
__end_of_OutputA_74164        text22       0024B8
__end_of_OutputCLK_Pulse      text21       0024C6
__end_of_Read_b_eep           text4        00249E
__end_of_SetHT1632C_As3208    text2        0023B6
__end_of_SetPWM               text1        002484
__end_of_WriteHT1632C         text19       001B68
__end_of_Write_b_eep          text28       0023FE
__end_of___awdiv              text24       001E86
__end_of___awmod              text25       002140
__end_of__initialization      cinit        001F30
__end_of__stringdata          mediumconst  007FFF
__end_of_clear_bear           text17       0021D2
__end_of_clear_time_area      text12       001FEC
__end_of_clrscr               text11       00230E
__end_of_delay_100ms          text7        001C36
__end_of_draw_bear            text13       000FFC
__end_of_draw_char            text16       0012DC
__end_of_draw_full_time       text10       000AB6
__end_of_draw_normal_time     text9        001582
__end_of_draw_row             text18       001950
__end_of_draw_str             text15       001DCA
__end_of_draw_time            text8        0024DE
__end_of_font                 mediumconst  007FC2
__end_of_init_hw              text6        002460
__end_of_main                 text0        0017C2
__end_of_memset               text5        002432
__end_of_rot                  text14       0022B0
__end_ofi2_delay_100ms        text29       001D04
__initialization              cinit        001E86
__mediumconst                 mediumconst  0079AA
__pbssBANK0                   bssBANK0     0000BD
__pbssBANK1                   bssBANK1     000182
__pbssBANK2                   bssBANK2     000200
__pbssBANK3                   bssBANK3     000300
__pbssCOMRAM                  bssCOMRAM    00002D
__pcinit                      cinit        001E86
__pcstackBANK0                cstackBANK0  0000E1
__pcstackBANK1                cstackBANK1  000170
__pcstackCOMRAM               cstackCOMRAM 000001
__pdataBANK0                  dataBANK0    000060
__pdataBANK1                  dataBANK1    000100
__pdataCOMRAM                 dataCOMRAM   000042
__pidataBANK0                 idataBANK0   00230E
__pidataBANK1                 idataBANK1   0021D2
__pidataCOMRAM                idataCOMRAM  0024DE
__pintcode                    intcode      000008
__pmediumconst                mediumconst  0079AA
__ptext0                      text0        001582
__ptext1                      text1        002460
__ptext10                     text10       0004C2
__ptext11                     text11       0022B0
__ptext12                     text12       001F3A
__ptext13                     text13       000AB6
__ptext14                     text14       002242
__ptext15                     text15       001D04
__ptext16                     text16       000FFC
__ptext17                     text17       002140
__ptext18                     text18       0017C2
__ptext19                     text19       001A78
__ptext2                      text2        00236C
__ptext20                     text20       001950
__ptext21                     text21       0024B8
__ptext22                     text22       00249E
__ptext23                     text23       0024E2
__ptext24                     text24       001DCA
__ptext25                     text25       002098
__ptext27                     text27       0024C6
__ptext28                     text28       0023B6
__ptext29                     text29       001C36
__ptext3                      text3        001FEC
__ptext4                      text4        002484
__ptext5                      text5        0023FE
__ptext6                      text6        002432
__ptext7                      text7        001B68
__ptext8                      text8        0024D4
__ptext9                      text9        0012DC
__ramtop                      ramtop       000F00
__size_of_Busy_eep            (abs)        000000
__size_of_CLK_DELAY           (abs)        000000
__size_of_ChipSelect          (abs)        000000
__size_of_CommandWriteHT1632C (abs)        000000
__size_of_ISR                 (abs)        000000
__size_of_OutputA_74164       (abs)        000000
__size_of_OutputCLK_Pulse     (abs)        000000
__size_of_Read_b_eep          (abs)        000000
__size_of_SetHT1632C_As3208   (abs)        000000
__size_of_SetPWM              (abs)        000000
__size_of_WriteHT1632C        (abs)        000000
__size_of_Write_b_eep         (abs)        000000
__size_of___awdiv             (abs)        000000
__size_of___awmod             (abs)        000000
__size_of_clear_bear          (abs)        000000
__size_of_clear_time_area     (abs)        000000
__size_of_clrscr              (abs)        000000
__size_of_delay_100ms         (abs)        000000
__size_of_draw_bear           (abs)        000000
__size_of_draw_char           (abs)        000000
__size_of_draw_full_time      (abs)        000000
__size_of_draw_normal_time    (abs)        000000
__size_of_draw_row            (abs)        000000
__size_of_draw_str            (abs)        000000
__size_of_draw_time           (abs)        000000
__size_of_init_hw             (abs)        000000
__size_of_main                (abs)        000000
__size_of_memset              (abs)        000000
__size_of_rot                 (abs)        000000
__size_ofi2_delay_100ms       (abs)        000000
__smallconst                  smallconst   000000
__stringdata                  mediumconst  007FC2
_address                      bssCOMRAM    000041
_balls                        dataBANK1    000100
_bear_0_awake                 dataBANK0    000060
_bear_0_slept                 dataBANK1    000128
_bear_0a_awake                dataBANK0    000072
_bear_0a_slept                dataBANK1    00013A
_bear_1_awake                 dataBANK0    000084
_bear_1_slept                 dataBANK1    00014C
_bear_1a_awake                dataBANK0    000096
_bear_1a_slept                dataBANK1    00015E
_clear_bear                   text17       002140
_clear_time_area              text12       001F3A
_clock_buf                    bssBANK2     000200
_clock_ready                  bssBANK0     0000DD
_clrscr                       text11       0022B0
_config_state                 bssBANK0     0000DE
_debounce_reg                 bssCOMRAM    00002D
_delay_100ms                  text7        001B68
_dow                          bssBANK0     0000D1
_dows                         dataBANK0    0000A8
_draw_bear                    text13       000AB6
_draw_char                    text16       000FFC
_draw_full_time               text10       0004C2
_draw_normal_time             text9        0012DC
_draw_row                     text18       0017C2
_draw_str                     text15       001D04
_draw_time                    text8        0024D4
_font                         mediumconst  0079AA
_hour                         bssBANK0     0000D3
_hour_bed                     bssBANK0     0000D5
_hour_wake                    bssBANK0     0000D7
_init_hw                      text6        002432
_last_button_state            bssCOMRAM    000032
_main                         text0        001582
_memset                       text5        0023FE
_minute                       bssBANK0     0000D9
_rot                          text14       002242
_second                       bssBANK0     0000DB
_tRadio                       bssBANK1     000182
_t_data                       bssBANK3     000300
_t_idx                        bssBANK0     0000DF
clear_bear@x                  cstackBANK0  0000E9
clear_time_area@x             cstackBANK0  0000E9
clrscr@addr                   cstackCOMRAM 00002B
clrscr@chip                   cstackCOMRAM 00002A
delay_100ms@i                 cstackCOMRAM 00001C
delay_100ms@j                 cstackCOMRAM 000020
draw_bear@c                   cstackBANK0  0000FD
draw_bear@image_1             bssBANK0     0000E0
draw_bear@sleeping            cstackBANK0  0000F8
draw_bear@x                   cstackBANK0  0000FE
draw_char@addr                cstackBANK0  0000EE
draw_char@base                cstackBANK0  0000E7
draw_char@base_chip           cstackBANK0  0000EC
draw_char@c                   cstackCOMRAM 00002B
draw_char@chip                cstackBANK0  0000EB
draw_char@color               cstackCOMRAM 00002C
draw_char@i                   cstackBANK0  0000E3
draw_char@j                   cstackBANK0  0000E5
draw_char@mask                cstackBANK0  0000E9
draw_char@resta               cstackBANK0  0000EA
draw_char@tmp                 cstackBANK0  0000ED
draw_char@x                   cstackCOMRAM 000029
draw_char@y                   cstackCOMRAM 00002A
draw_full_time@color_dow      cstackBANK1  000174
draw_full_time@color_hour     cstackBANK1  000170
draw_full_time@color_min      cstackBANK1  000172
draw_full_time@dec            cstackBANK1  000176
draw_full_time@old_config     dataBANK0    0000BC
draw_full_time@old_dow        dataBANK0    0000B6
draw_full_time@old_hour       dataBANK0    0000B8
draw_full_time@old_min        dataBANK0    0000BA
draw_full_time@uni            cstackBANK1  000177
draw_normal_time@ball_idx     cstackBANK0  0000F5
draw_normal_time@hour_12      cstackBANK0  0000F9
draw_normal_time@x            cstackBANK0  0000F7
draw_row@addr                 cstackBANK0  0000E5
draw_row@base_chip            cstackBANK0  0000E4
draw_row@chip                 cstackBANK0  0000E3
draw_row@color                cstackCOMRAM 00002C
draw_row@resta                cstackBANK0  0000E2
draw_row@val                  cstackCOMRAM 00002B
draw_row@x                    cstackCOMRAM 000029
draw_row@y                    cstackCOMRAM 00002A
draw_str@base                 cstackBANK0  0000F5
draw_str@c                    cstackBANK0  0000F6
draw_str@color                cstackBANK0  0000F1
draw_str@str                  cstackBANK0  0000F2
draw_str@x                    cstackBANK0  0000EF
draw_str@y                    cstackBANK0  0000F0
end_of_initialization         cinit        001F30
i2_delay_100ms                text29       001C36
i2delay_100ms@i               cstackCOMRAM 000001
i2delay_100ms@j               cstackCOMRAM 000005
intlevel0                     text         000000
intlevel1                     text         000000
intlevel2                     text         000000
intlevel3                     text         000000
main@last_hour                cstackBANK1  000180
main@last_min                 cstackBANK1  00017E
memset@c                      cstackCOMRAM 00001E
memset@n                      cstackCOMRAM 000020
memset@p                      cstackCOMRAM 000022
memset@p1                     cstackCOMRAM 00001C
rot@c                         cstackCOMRAM 00001C
rot@r                         cstackCOMRAM 00001E
start                         init         0004BE
start_initialization          cinit        001E86


FUNCTION INFORMATION:

 *************** function _main *****************
 Defined at:
		line 1317 in file "marco_clock.c"
 Parameters:    Size  Location     Type
  argc            2    8[BANK1 ] int 
  argv            3   10[BANK1 ] PTR PTR unsigned char 
 Auto vars:     Size  Location     Type
  last_hour       2   16[BANK1 ] int 
  last_min        2   14[BANK1 ] int 
 Return value:  Size  Location     Type
                  2    8[BANK1 ] int 
 Registers used:
		wreg, fsr2l, fsr2h, status,2, status,0, tblptrl, tblptrh, tblptru, prodl, prodh, cstack
 Tracked objects:
		On entry : 
		On exit  : 
		Unchanged: 
 Data sizes:     COMRAM   BANK0   BANK1   BANK2   BANK3   BANK4   BANK5   BANK6   BANK7   BANK8   BANK9  BANK10  BANK11  BANK12  BANK13  BANK14
      Params:         0       0       5       0       0       0       0       0       0       0       0       0       0       0       0       0
      Locals:         0       0       4       0       0       0       0       0       0       0       0       0       0       0       0       0
      Temps:          0       0       1       0       0       0       0       0       0       0       0       0       0       0       0       0
      Totals:         0       0      10       0       0       0       0       0       0       0       0       0       0       0       0       0
Total ram usage:       10 bytes
 Hardware stack levels required when called:   10
 This function calls:
		_memset
		_init_hw
		_delay_100ms
		_SetHT1632C_As3208
		_clrscr
		_Read_b_eep
		_SetPWM
		_draw_bear
		_draw_time
 This function is called by:
		Startup code after reset
 This function uses a non-reentrant model


 *************** function _SetPWM *****************
 Defined at:
		line 598 in file "marco_clock.c"
 Parameters:    Size  Location     Type
  pwm             2   42[COMRAM] unsigned int 
 Auto vars:     Size  Location     Type
		None
 Return value:  Size  Location     Type
		None               void
 Registers used:
		wreg, status,2, status,0, cstack
 Tracked objects:
		On entry : 
		On exit  : 
		Unchanged: 
 Data sizes:     COMRAM   BANK0   BANK1   BANK2   BANK3   BANK4   BANK5   BANK6   BANK7   BANK8   BANK9  BANK10  BANK11  BANK12  BANK13  BANK14
      Params:         2       0       0       0       0       0       0       0       0       0       0       0       0       0       0       0
      Locals:         0       0       0       0       0       0       0       0       0       0       0       0       0       0       0       0
      Temps:          0       0       0       0       0       0       0       0       0       0       0       0       0       0       0       0
      Totals:         2       0       0       0       0       0       0       0       0       0       0       0       0       0       0       0
Total ram usage:        2 bytes
 Hardware stack levels used:    1
 Hardware stack levels required when called:    6
 This function calls:
		_CommandWriteHT1632C
 This function is called by:
		_main
 This function uses a non-reentrant model


 *************** function _SetHT1632C_As3208 *****************
 Defined at:
		line 618 in file "marco_clock.c"
 Parameters:    Size  Location     Type
		None
 Auto vars:     Size  Location     Type
		None
 Return value:  Size  Location     Type
		None               void
 Registers used:
		wreg, status,2, status,0, cstack
 Tracked objects:
		On entry : 
		On exit  : 
		Unchanged: 
 Data sizes:     COMRAM   BANK0   BANK1   BANK2   BANK3   BANK4   BANK5   BANK6   BANK7   BANK8   BANK9  BANK10  BANK11  BANK12  BANK13  BANK14
      Params:         0       0       0       0       0       0       0       0       0       0       0       0       0       0       0       0
      Locals:         0       0       0       0       0       0       0       0       0       0       0       0       0       0       0       0
      Temps:          0       0       0       0       0       0       0       0       0       0       0       0       0       0       0       0
      Totals:         0       0       0       0       0       0       0       0       0       0       0       0       0       0       0       0
Total ram usage:        0 bytes
 Hardware stack levels used:    1
 Hardware stack levels required when called:    6
 This function calls:
		_CommandWriteHT1632C
 This function is called by:
		_main
 This function uses a non-reentrant model


 *************** function _CommandWriteHT1632C *****************
 Defined at:
		line 644 in file "marco_clock.c"
 Parameters:    Size  Location     Type
  command         2   34[COMRAM] unsigned int 
 Auto vars:     Size  Location     Type
  j               2   39[COMRAM] unsigned int 
  i               1   41[COMRAM] unsigned char 
 Return value:  Size  Location     Type
		None               void
 Registers used:
		wreg, status,2, status,0, cstack
 Tracked objects:
		On entry : 
		On exit  : 
		Unchanged: 
 Data sizes:     COMRAM   BANK0   BANK1   BANK2   BANK3   BANK4   BANK5   BANK6   BANK7   BANK8   BANK9  BANK10  BANK11  BANK12  BANK13  BANK14
      Params:         2       0       0       0       0       0       0       0       0       0       0       0       0       0       0       0
      Locals:         3       0       0       0       0       0       0       0       0       0       0       0       0       0       0       0
      Temps:          3       0       0       0       0       0       0       0       0       0       0       0       0       0       0       0
      Totals:         8       0       0       0       0       0       0       0       0       0       0       0       0       0       0       0
Total ram usage:        8 bytes
 Hardware stack levels used:    1
 Hardware stack levels required when called:    5
 This function calls:
		_ChipSelect
		_CLK_DELAY
 This function is called by:
		_SetPWM
		_SetHT1632C_As3208
 This function uses a non-reentrant model


 *************** function _Read_b_eep *****************
 Defined at:
		line 36 in file "plib/EEP/read_B.c"
 Parameters:    Size  Location     Type
  badd            2   27[COMRAM] unsigned int 
 Auto vars:     Size  Location     Type
		None
 Return value:  Size  Location     Type
                  1    wreg      unsigned char 
 Registers used:
		wreg, status,2, status,0
 Tracked objects:
		On entry : 
		On exit  : 
		Unchanged: 
 Data sizes:     COMRAM   BANK0   BANK1   BANK2   BANK3   BANK4   BANK5   BANK6   BANK7   BANK8   BANK9  BANK10  BANK11  BANK12  BANK13  BANK14
      Params:         2       0       0       0       0       0       0       0       0       0       0       0       0       0       0       0
      Locals:         0       0       0       0       0       0       0       0       0       0       0       0       0       0       0       0
      Temps:          0       0       0       0       0       0       0       0       0       0       0       0       0       0       0       0
      Totals:         2       0       0       0       0       0       0       0       0       0       0       0       0       0       0       0
Total ram usage:        2 bytes
 Hardware stack levels used:    1
 Hardware stack levels required when called:    2
 This function calls:
		Nothing
 This function is called by:
		_main
 This function uses a non-reentrant model


 *************** function _memset *****************
 Defined at:
		line 10 in file "/Applications/microchip/xc8/v1.12/sources/memset.c"
 Parameters:    Size  Location     Type
  p1              2   27[COMRAM] PTR void 
		 -> clock_buf(256), t_data(256), 
  c               2   29[COMRAM] int 
  n               2   31[COMRAM] unsigned int 
 Auto vars:     Size  Location     Type
  p               2   33[COMRAM] PTR unsigned char 
		 -> clock_buf(256), t_data(256), 
 Return value:  Size  Location     Type
                  2   27[COMRAM] PTR void 
 Registers used:
		wreg, fsr2l, fsr2h, status,2, status,0
 Tracked objects:
		On entry : 
		On exit  : 
		Unchanged: 
 Data sizes:     COMRAM   BANK0   BANK1   BANK2   BANK3   BANK4   BANK5   BANK6   BANK7   BANK8   BANK9  BANK10  BANK11  BANK12  BANK13  BANK14
      Params:         6       0       0       0       0       0       0       0       0       0       0       0       0       0       0       0
      Locals:         2       0       0       0       0       0       0       0       0       0       0       0       0       0       0       0
      Temps:          0       0       0       0       0       0       0       0       0       0       0       0       0       0       0       0
      Totals:         8       0       0       0       0       0       0       0       0       0       0       0       0       0       0       0
Total ram usage:        8 bytes
 Hardware stack levels used:    1
 Hardware stack levels required when called:    2
 This function calls:
		Nothing
 This function is called by:
		_main
 This function uses a non-reentrant model


 *************** function _init_hw *****************
 Defined at:
		line 886 in file "marco_clock.c"
 Parameters:    Size  Location     Type
		None
 Auto vars:     Size  Location     Type
		None
 Return value:  Size  Location     Type
		None               void
 Registers used:
		wreg, status,2
 Tracked objects:
		On entry : 
		On exit  : 
		Unchanged: 
 Data sizes:     COMRAM   BANK0   BANK1   BANK2   BANK3   BANK4   BANK5   BANK6   BANK7   BANK8   BANK9  BANK10  BANK11  BANK12  BANK13  BANK14
      Params:         0       0       0       0       0       0       0       0       0       0       0       0       0       0       0       0
      Locals:         0       0       0       0       0       0       0       0       0       0       0       0       0       0       0       0
      Temps:          0       0       0       0       0       0       0       0       0       0       0       0       0       0       0       0
      Totals:         0       0       0       0       0       0       0       0       0       0       0       0       0       0       0       0
Total ram usage:        0 bytes
 Hardware stack levels used:    1
 Hardware stack levels required when called:    2
 This function calls:
		Nothing
 This function is called by:
		_main
 This function uses a non-reentrant model


 *************** function _delay_100ms *****************
 Defined at:
		line 908 in file "marco_clock.c"
 Parameters:    Size  Location     Type
		None
 Auto vars:     Size  Location     Type
  j               4   31[COMRAM] volatile long 
  i               4   27[COMRAM] volatile long 
 Return value:  Size  Location     Type
		None               void
 Registers used:
		wreg, status,2, status,0
 Tracked objects:
		On entry : 
		On exit  : 
		Unchanged: 
 Data sizes:     COMRAM   BANK0   BANK1   BANK2   BANK3   BANK4   BANK5   BANK6   BANK7   BANK8   BANK9  BANK10  BANK11  BANK12  BANK13  BANK14
      Params:         0       0       0       0       0       0       0       0       0       0       0       0       0       0       0       0
      Locals:         8       0       0       0       0       0       0       0       0       0       0       0       0       0       0       0
      Temps:          0       0       0       0       0       0       0       0       0       0       0       0       0       0       0       0
      Totals:         8       0       0       0       0       0       0       0       0       0       0       0       0       0       0       0
Total ram usage:        8 bytes
 Hardware stack levels used:    1
 Hardware stack levels required when called:    2
 This function calls:
		Nothing
 This function is called by:
		_main
 This function uses a non-reentrant model


 *************** function _draw_time *****************
 Defined at:
		line 1161 in file "marco_clock.c"
 Parameters:    Size  Location     Type
		None
 Auto vars:     Size  Location     Type
		None
 Return value:  Size  Location     Type
		None               void
 Registers used:
		wreg, fsr2l, fsr2h, status,2, status,0, tblptrl, tblptrh, tblptru, prodl, prodh, cstack
 Tracked objects:
		On entry : 
		On exit  : 
		Unchanged: 
 Data sizes:     COMRAM   BANK0   BANK1   BANK2   BANK3   BANK4   BANK5   BANK6   BANK7   BANK8   BANK9  BANK10  BANK11  BANK12  BANK13  BANK14
      Params:         0       0       0       0       0       0       0       0       0       0       0       0       0       0       0       0
      Locals:         0       0       0       0       0       0       0       0       0       0       0       0       0       0       0       0
      Temps:          0       0       0       0       0       0       0       0       0       0       0       0       0       0       0       0
      Totals:         0       0       0       0       0       0       0       0       0       0       0       0       0       0       0       0
Total ram usage:        0 bytes
 Hardware stack levels used:    1
 Hardware stack levels required when called:    9
 This function calls:
		_draw_full_time
		_draw_normal_time
 This function is called by:
		_main
 This function uses a non-reentrant model


 *************** function _draw_normal_time *****************
 Defined at:
		line 988 in file "marco_clock.c"
 Parameters:    Size  Location     Type
		None
 Auto vars:     Size  Location     Type
  hour_12         2   24[BANK0 ] int 
  x               2   22[BANK0 ] int 
  ball_idx        2   20[BANK0 ] int 
  c               2    0        volatile int 
 Return value:  Size  Location     Type
		None               void
 Registers used:
		wreg, fsr2l, fsr2h, status,2, status,0, tblptrl, tblptrh, tblptru, prodl, prodh, cstack
 Tracked objects:
		On entry : 
		On exit  : 
		Unchanged: 
 Data sizes:     COMRAM   BANK0   BANK1   BANK2   BANK3   BANK4   BANK5   BANK6   BANK7   BANK8   BANK9  BANK10  BANK11  BANK12  BANK13  BANK14
      Params:         0       0       0       0       0       0       0       0       0       0       0       0       0       0       0       0
      Locals:         0       6       0       0       0       0       0       0       0       0       0       0       0       0       0       0
      Temps:          0       6       0       0       0       0       0       0       0       0       0       0       0       0       0       0
      Totals:         0      12       0       0       0       0       0       0       0       0       0       0       0       0       0       0
Total ram usage:       12 bytes
 Hardware stack levels used:    1
 Hardware stack levels required when called:    7
 This function calls:
		_draw_char
		_rot
		_draw_row
 This function is called by:
		_draw_time
 This function uses a non-reentrant model


 *************** function _draw_full_time *****************
 Defined at:
		line 1068 in file "marco_clock.c"
 Parameters:    Size  Location     Type
		None
 Auto vars:     Size  Location     Type
  color_dow       2    4[BANK1 ] int 
  color_min       2    2[BANK1 ] int 
  color_hour      2    0[BANK1 ] int 
  uni             1    7[BANK1 ] unsigned char 
  dec             1    6[BANK1 ] unsigned char 
  hour_12         1    0        unsigned char 
 Return value:  Size  Location     Type
		None               void
 Registers used:
		wreg, fsr2l, fsr2h, status,2, status,0, tblptrl, tblptrh, tblptru, prodl, prodh, cstack
 Tracked objects:
		On entry : 
		On exit  : 
		Unchanged: 
 Data sizes:     COMRAM   BANK0   BANK1   BANK2   BANK3   BANK4   BANK5   BANK6   BANK7   BANK8   BANK9  BANK10  BANK11  BANK12  BANK13  BANK14
      Params:         0       0       0       0       0       0       0       0       0       0       0       0       0       0       0       0
      Locals:         0       0       8       0       0       0       0       0       0       0       0       0       0       0       0       0
      Temps:          0       5       0       0       0       0       0       0       0       0       0       0       0       0       0       0
      Totals:         0       5       8       0       0       0       0       0       0       0       0       0       0       0       0       0
Total ram usage:       13 bytes
 Hardware stack levels used:    1
 Hardware stack levels required when called:    8
 This function calls:
		_clear_time_area
		_clrscr
		___awmod
		___awdiv
		_draw_char
		_draw_str
 This function is called by:
		_draw_time
 This function uses a non-reentrant model


 *************** function _clrscr *****************
 Defined at:
		line 605 in file "marco_clock.c"
 Parameters:    Size  Location     Type
		None
 Auto vars:     Size  Location     Type
  addr            1   42[COMRAM] unsigned char 
  chip            1   41[COMRAM] unsigned char 
 Return value:  Size  Location     Type
		None               void
 Registers used:
		wreg, status,2, status,0, cstack
 Tracked objects:
		On entry : 
		On exit  : 
		Unchanged: 
 Data sizes:     COMRAM   BANK0   BANK1   BANK2   BANK3   BANK4   BANK5   BANK6   BANK7   BANK8   BANK9  BANK10  BANK11  BANK12  BANK13  BANK14
      Params:         0       0       0       0       0       0       0       0       0       0       0       0       0       0       0       0
      Locals:         2       0       0       0       0       0       0       0       0       0       0       0       0       0       0       0
      Temps:          1       0       0       0       0       0       0       0       0       0       0       0       0       0       0       0
      Totals:         3       0       0       0       0       0       0       0       0       0       0       0       0       0       0       0
Total ram usage:        3 bytes
 Hardware stack levels used:    1
 Hardware stack levels required when called:    6
 This function calls:
		_WriteHT1632C
 This function is called by:
		_draw_full_time
		_main
 This function uses a non-reentrant model


 *************** function _clear_time_area *****************
 Defined at:
		line 1037 in file "marco_clock.c"
 Parameters:    Size  Location     Type
		None
 Auto vars:     Size  Location     Type
  x               2    8[BANK0 ] int 
 Return value:  Size  Location     Type
		None               void
 Registers used:
		wreg, status,2, status,0, prodl, prodh, cstack
 Tracked objects:
		On entry : 
		On exit  : 
		Unchanged: 
 Data sizes:     COMRAM   BANK0   BANK1   BANK2   BANK3   BANK4   BANK5   BANK6   BANK7   BANK8   BANK9  BANK10  BANK11  BANK12  BANK13  BANK14
      Params:         0       0       0       0       0       0       0       0       0       0       0       0       0       0       0       0
      Locals:         0       2       0       0       0       0       0       0       0       0       0       0       0       0       0       0
      Temps:          0       3       0       0       0       0       0       0       0       0       0       0       0       0       0       0
      Totals:         0       5       0       0       0       0       0       0       0       0       0       0       0       0       0       0
Total ram usage:        5 bytes
 Hardware stack levels used:    1
 Hardware stack levels required when called:    7
 This function calls:
		_draw_row
 This function is called by:
		_draw_full_time
 This function uses a non-reentrant model


 *************** function _draw_bear *****************
 Defined at:
		line 1174 in file "marco_clock.c"
 Parameters:    Size  Location     Type
  sleeping        2   23[BANK0 ] int 
 Auto vars:     Size  Location     Type
  x               2   29[BANK0 ] int 
  c               1   28[BANK0 ] unsigned char 
 Return value:  Size  Location     Type
		None               void
 Registers used:
		wreg, fsr2l, fsr2h, status,2, status,0, tblptrl, tblptrh, tblptru, prodl, prodh, cstack
 Tracked objects:
		On entry : 
		On exit  : 
		Unchanged: 
 Data sizes:     COMRAM   BANK0   BANK1   BANK2   BANK3   BANK4   BANK5   BANK6   BANK7   BANK8   BANK9  BANK10  BANK11  BANK12  BANK13  BANK14
      Params:         0       2       0       0       0       0       0       0       0       0       0       0       0       0       0       0
      Locals:         0       3       0       0       0       0       0       0       0       0       0       0       0       0       0       0
      Temps:          0       3       0       0       0       0       0       0       0       0       0       0       0       0       0       0
      Totals:         0       8       0       0       0       0       0       0       0       0       0       0       0       0       0       0
Total ram usage:        8 bytes
 Hardware stack levels used:    1
 Hardware stack levels required when called:    8
 This function calls:
		_clear_bear
		_draw_str
		___awmod
		_rot
		_draw_row
 This function is called by:
		_main
 This function uses a non-reentrant model


 *************** function _rot *****************
 Defined at:
		line 925 in file "marco_clock.c"
 Parameters:    Size  Location     Type
  c               1   27[COMRAM] unsigned char 
 Auto vars:     Size  Location     Type
  r               1   29[COMRAM] unsigned char 
 Return value:  Size  Location     Type
                  1    wreg      unsigned char 
 Registers used:
		wreg, status,2, status,0
 Tracked objects:
		On entry : 
		On exit  : 
		Unchanged: 
 Data sizes:     COMRAM   BANK0   BANK1   BANK2   BANK3   BANK4   BANK5   BANK6   BANK7   BANK8   BANK9  BANK10  BANK11  BANK12  BANK13  BANK14
      Params:         1       0       0       0       0       0       0       0       0       0       0       0       0       0       0       0
      Locals:         1       0       0       0       0       0       0       0       0       0       0       0       0       0       0       0
      Temps:          1       0       0       0       0       0       0       0       0       0       0       0       0       0       0       0
      Totals:         3       0       0       0       0       0       0       0       0       0       0       0       0       0       0       0
Total ram usage:        3 bytes
 Hardware stack levels used:    1
 Hardware stack levels required when called:    2
 This function calls:
		Nothing
 This function is called by:
		_draw_normal_time
		_draw_bear
 This function uses a non-reentrant model


 *************** function _draw_str *****************
 Defined at:
		line 1053 in file "marco_clock.c"
 Parameters:    Size  Location     Type
  x               1   14[BANK0 ] unsigned char 
  y               1   15[BANK0 ] unsigned char 
  color           1   16[BANK0 ] unsigned char 
  str             2   17[BANK0 ] PTR const unsigned char 
		 -> STR_14(6), STR_13(5), STR_12(5), STR_11(4), 
		 -> STR_10(4), STR_9(4), STR_8(5), STR_7(4), 
		 -> STR_6(4), STR_5(4), STR_4(4), STR_3(4), 
		 -> STR_2(4), STR_1(4), 
 Auto vars:     Size  Location     Type
  c               2   21[BANK0 ] PTR const unsigned char 
		 -> STR_14(6), STR_13(5), STR_12(5), STR_11(4), 
		 -> STR_10(4), STR_9(4), STR_8(5), STR_7(4), 
		 -> STR_6(4), STR_5(4), STR_4(4), STR_3(4), 
		 -> STR_2(4), STR_1(4), 
  base            1   20[BANK0 ] unsigned char 
 Return value:  Size  Location     Type
		None               void
 Registers used:
		wreg, status,2, status,0, tblptrl, tblptrh, tblptru, prodl, prodh, cstack
 Tracked objects:
		On entry : 
		On exit  : 
		Unchanged: 
 Data sizes:     COMRAM   BANK0   BANK1   BANK2   BANK3   BANK4   BANK5   BANK6   BANK7   BANK8   BANK9  BANK10  BANK11  BANK12  BANK13  BANK14
      Params:         0       5       0       0       0       0       0       0       0       0       0       0       0       0       0       0
      Locals:         0       3       0       0       0       0       0       0       0       0       0       0       0       0       0       0
      Temps:          0       1       0       0       0       0       0       0       0       0       0       0       0       0       0       0
      Totals:         0       9       0       0       0       0       0       0       0       0       0       0       0       0       0       0
Total ram usage:        9 bytes
 Hardware stack levels used:    1
 Hardware stack levels required when called:    7
 This function calls:
		_draw_char
 This function is called by:
		_draw_full_time
		_draw_bear
 This function uses a non-reentrant model


 *************** function _draw_char *****************
 Defined at:
		line 785 in file "marco_clock.c"
 Parameters:    Size  Location     Type
  x               1   40[COMRAM] unsigned char 
  y               1   41[COMRAM] unsigned char 
  c               1   42[COMRAM] unsigned char 
  color           1   43[COMRAM] unsigned char 
 Auto vars:     Size  Location     Type
  base            2    6[BANK0 ] int 
  j               2    4[BANK0 ] int 
  i               2    2[BANK0 ] int 
  addr            1   13[BANK0 ] unsigned char 
  tmp             1   12[BANK0 ] unsigned char 
  base_chip       1   11[BANK0 ] unsigned char 
  chip            1   10[BANK0 ] unsigned char 
  resta           1    9[BANK0 ] unsigned char 
  mask            1    8[BANK0 ] unsigned char 
 Return value:  Size  Location     Type
		None               void
 Registers used:
		wreg, status,2, status,0, tblptrl, tblptrh, tblptru, prodl, prodh, cstack
 Tracked objects:
		On entry : 
		On exit  : 
		Unchanged: 
 Data sizes:     COMRAM   BANK0   BANK1   BANK2   BANK3   BANK4   BANK5   BANK6   BANK7   BANK8   BANK9  BANK10  BANK11  BANK12  BANK13  BANK14
      Params:         4       0       0       0       0       0       0       0       0       0       0       0       0       0       0       0
      Locals:         0      12       0       0       0       0       0       0       0       0       0       0       0       0       0       0
      Temps:          0       2       0       0       0       0       0       0       0       0       0       0       0       0       0       0
      Totals:         4      14       0       0       0       0       0       0       0       0       0       0       0       0       0       0
Total ram usage:       18 bytes
 Hardware stack levels used:    1
 Hardware stack levels required when called:    6
 This function calls:
		_WriteHT1632C
 This function is called by:
		_draw_normal_time
		_draw_str
		_draw_full_time
 This function uses a non-reentrant model


 *************** function _clear_bear *****************
 Defined at:
		line 1166 in file "marco_clock.c"
 Parameters:    Size  Location     Type
		None
 Auto vars:     Size  Location     Type
  x               1    8[BANK0 ] unsigned char 
 Return value:  Size  Location     Type
		None               void
 Registers used:
		wreg, status,2, status,0, prodl, prodh, cstack
 Tracked objects:
		On entry : 
		On exit  : 
		Unchanged: 
 Data sizes:     COMRAM   BANK0   BANK1   BANK2   BANK3   BANK4   BANK5   BANK6   BANK7   BANK8   BANK9  BANK10  BANK11  BANK12  BANK13  BANK14
      Params:         0       0       0       0       0       0       0       0       0       0       0       0       0       0       0       0
      Locals:         0       1       0       0       0       0       0       0       0       0       0       0       0       0       0       0
      Temps:          0       3       0       0       0       0       0       0       0       0       0       0       0       0       0       0
      Totals:         0       4       0       0       0       0       0       0       0       0       0       0       0       0       0       0
Total ram usage:        4 bytes
 Hardware stack levels used:    1
 Hardware stack levels required when called:    7
 This function calls:
		_draw_row
 This function is called by:
		_draw_bear
 This function uses a non-reentrant model


 *************** function _draw_row *****************
 Defined at:
		line 846 in file "marco_clock.c"
 Parameters:    Size  Location     Type
  x               1   40[COMRAM] unsigned char 
  y               1   41[COMRAM] unsigned char 
  val             1   42[COMRAM] unsigned char 
  color           1   43[COMRAM] unsigned char 
 Auto vars:     Size  Location     Type
  addr            1    4[BANK0 ] unsigned char 
  base_chip       1    3[BANK0 ] unsigned char 
  chip            1    2[BANK0 ] unsigned char 
  resta           1    1[BANK0 ] unsigned char 
 Return value:  Size  Location     Type
		None               void
 Registers used:
		wreg, status,2, status,0, prodl, prodh, cstack
 Tracked objects:
		On entry : 
		On exit  : 
		Unchanged: 
 Data sizes:     COMRAM   BANK0   BANK1   BANK2   BANK3   BANK4   BANK5   BANK6   BANK7   BANK8   BANK9  BANK10  BANK11  BANK12  BANK13  BANK14
      Params:         4       0       0       0       0       0       0       0       0       0       0       0       0       0       0       0
      Locals:         0       4       0       0       0       0       0       0       0       0       0       0       0       0       0       0
      Temps:          0       1       0       0       0       0       0       0       0       0       0       0       0       0       0       0
      Totals:         4       5       0       0       0       0       0       0       0       0       0       0       0       0       0       0
Total ram usage:        9 bytes
 Hardware stack levels used:    1
 Hardware stack levels required when called:    6
 This function calls:
		_WriteHT1632C
 This function is called by:
		_draw_normal_time
		_clear_time_area
		_clear_bear
		_draw_bear
 This function uses a non-reentrant model


 *************** function _WriteHT1632C *****************
 Defined at:
		line 703 in file "marco_clock.c"
 Parameters:    Size  Location     Type
  chip            1   34[COMRAM] unsigned char 
  myaddress       1   35[COMRAM] unsigned char 
  data            1   36[COMRAM] unsigned char 
 Auto vars:     Size  Location     Type
  i               1   39[COMRAM] unsigned char 
  temp            1   38[COMRAM] unsigned char 
 Return value:  Size  Location     Type
		None               void
 Registers used:
		wreg, status,2, status,0, cstack
 Tracked objects:
		On entry : 
		On exit  : 
		Unchanged: 
 Data sizes:     COMRAM   BANK0   BANK1   BANK2   BANK3   BANK4   BANK5   BANK6   BANK7   BANK8   BANK9  BANK10  BANK11  BANK12  BANK13  BANK14
      Params:         3       0       0       0       0       0       0       0       0       0       0       0       0       0       0       0
      Locals:         2       0       0       0       0       0       0       0       0       0       0       0       0       0       0       0
      Temps:          1       0       0       0       0       0       0       0       0       0       0       0       0       0       0       0
      Totals:         6       0       0       0       0       0       0       0       0       0       0       0       0       0       0       0
Total ram usage:        6 bytes
 Hardware stack levels used:    1
 Hardware stack levels required when called:    5
 This function calls:
		_ChipSelect
		_CLK_DELAY
 This function is called by:
		_clrscr
		_draw_char
		_draw_row
 This function uses a non-reentrant model


 *************** function _ChipSelect *****************
 Defined at:
		line 751 in file "marco_clock.c"
 Parameters:    Size  Location     Type
  select          2   28[COMRAM] int 
 Auto vars:     Size  Location     Type
  tmp             1   33[COMRAM] unsigned char 
 Return value:  Size  Location     Type
		None               void
 Registers used:
		wreg, status,2, status,0, cstack
 Tracked objects:
		On entry : 
		On exit  : 
		Unchanged: 
 Data sizes:     COMRAM   BANK0   BANK1   BANK2   BANK3   BANK4   BANK5   BANK6   BANK7   BANK8   BANK9  BANK10  BANK11  BANK12  BANK13  BANK14
      Params:         2       0       0       0       0       0       0       0       0       0       0       0       0       0       0       0
      Locals:         1       0       0       0       0       0       0       0       0       0       0       0       0       0       0       0
      Temps:          3       0       0       0       0       0       0       0       0       0       0       0       0       0       0       0
      Totals:         6       0       0       0       0       0       0       0       0       0       0       0       0       0       0       0
Total ram usage:        6 bytes
 Hardware stack levels used:    1
 Hardware stack levels required when called:    4
 This function calls:
		_OutputA_74164
		_CLK_DELAY
		_OutputCLK_Pulse
 This function is called by:
		_CommandWriteHT1632C
		_WriteHT1632C
 This function uses a non-reentrant model


 *************** function _OutputCLK_Pulse *****************
 Defined at:
		line 628 in file "marco_clock.c"
 Parameters:    Size  Location     Type
		None
 Auto vars:     Size  Location     Type
		None
 Return value:  Size  Location     Type
		None               void
 Registers used:
		cstack
 Tracked objects:
		On entry : 
		On exit  : 
		Unchanged: 
 Data sizes:     COMRAM   BANK0   BANK1   BANK2   BANK3   BANK4   BANK5   BANK6   BANK7   BANK8   BANK9  BANK10  BANK11  BANK12  BANK13  BANK14
      Params:         0       0       0       0       0       0       0       0       0       0       0       0       0       0       0       0
      Locals:         0       0       0       0       0       0       0       0       0       0       0       0       0       0       0       0
      Temps:          0       0       0       0       0       0       0       0       0       0       0       0       0       0       0       0
      Totals:         0       0       0       0       0       0       0       0       0       0       0       0       0       0       0       0
Total ram usage:        0 bytes
 Hardware stack levels used:    1
 Hardware stack levels required when called:    3
 This function calls:
		_CLK_DELAY
 This function is called by:
		_ChipSelect
 This function uses a non-reentrant model


 *************** function _OutputA_74164 *****************
 Defined at:
		line 636 in file "marco_clock.c"
 Parameters:    Size  Location     Type
  x               1   27[COMRAM] unsigned char 
 Auto vars:     Size  Location     Type
		None
 Return value:  Size  Location     Type
		None               void
 Registers used:
		cstack
 Tracked objects:
		On entry : 
		On exit  : 
		Unchanged: 
 Data sizes:     COMRAM   BANK0   BANK1   BANK2   BANK3   BANK4   BANK5   BANK6   BANK7   BANK8   BANK9  BANK10  BANK11  BANK12  BANK13  BANK14
      Params:         1       0       0       0       0       0       0       0       0       0       0       0       0       0       0       0
      Locals:         0       0       0       0       0       0       0       0       0       0       0       0       0       0       0       0
      Temps:          0       0       0       0       0       0       0       0       0       0       0       0       0       0       0       0
      Totals:         1       0       0       0       0       0       0       0       0       0       0       0       0       0       0       0
Total ram usage:        1 bytes
 Hardware stack levels used:    1
 Hardware stack levels required when called:    3
 This function calls:
		_CLK_DELAY
 This function is called by:
		_ChipSelect
 This function uses a non-reentrant model


 *************** function _CLK_DELAY *****************
 Defined at:
		line 593 in file "marco_clock.c"
 Parameters:    Size  Location     Type
		None
 Auto vars:     Size  Location     Type
		None
 Return value:  Size  Location     Type
		None               void
 Registers used:
		None
 Tracked objects:
		On entry : 
		On exit  : 
		Unchanged: 
 Data sizes:     COMRAM   BANK0   BANK1   BANK2   BANK3   BANK4   BANK5   BANK6   BANK7   BANK8   BANK9  BANK10  BANK11  BANK12  BANK13  BANK14
      Params:         0       0       0       0       0       0       0       0       0       0       0       0       0       0       0       0
      Locals:         0       0       0       0       0       0       0       0       0       0       0       0       0       0       0       0
      Temps:          0       0       0       0       0       0       0       0       0       0       0       0       0       0       0       0
      Totals:         0       0       0       0       0       0       0       0       0       0       0       0       0       0       0       0
Total ram usage:        0 bytes
 Hardware stack levels used:    1
 Hardware stack levels required when called:    2
 This function calls:
		Nothing
 This function is called by:
		_OutputCLK_Pulse
		_OutputA_74164
		_CommandWriteHT1632C
		_WriteHT1632C
		_ChipSelect
		_AddressWriteHT1632C
 This function uses a non-reentrant model


 *************** function ___awdiv *****************
 Defined at:
		line 10 in file "/Applications/microchip/xc8/v1.12/sources/awdiv.c"
 Parameters:    Size  Location     Type
  dividend        2   27[COMRAM] int 
  divisor         2   29[COMRAM] int 
 Auto vars:     Size  Location     Type
  quotient        2   34[COMRAM] int 
  sign            1   33[COMRAM] unsigned char 
  counter         1   32[COMRAM] unsigned char 
 Return value:  Size  Location     Type
                  2   27[COMRAM] int 
 Registers used:
		wreg, status,2, status,0
 Tracked objects:
		On entry : 
		On exit  : 
		Unchanged: 
 Data sizes:     COMRAM   BANK0   BANK1   BANK2   BANK3   BANK4   BANK5   BANK6   BANK7   BANK8   BANK9  BANK10  BANK11  BANK12  BANK13  BANK14
      Params:         4       0       0       0       0       0       0       0       0       0       0       0       0       0       0       0
      Locals:         4       0       0       0       0       0       0       0       0       0       0       0       0       0       0       0
      Temps:          1       0       0       0       0       0       0       0       0       0       0       0       0       0       0       0
      Totals:         9       0       0       0       0       0       0       0       0       0       0       0       0       0       0       0
Total ram usage:        9 bytes
 Hardware stack levels used:    1
 Hardware stack levels required when called:    2
 This function calls:
		Nothing
 This function is called by:
		_draw_full_time
 This function uses a non-reentrant model


 *************** function ___awmod *****************
 Defined at:
		line 10 in file "/Applications/microchip/xc8/v1.12/sources/awmod.c"
 Parameters:    Size  Location     Type
  dividend        2   27[COMRAM] int 
  divisor         2   29[COMRAM] int 
 Auto vars:     Size  Location     Type
  sign            1   33[COMRAM] unsigned char 
  counter         1   32[COMRAM] unsigned char 
 Return value:  Size  Location     Type
                  2   27[COMRAM] int 
 Registers used:
		wreg, status,2, status,0
 Tracked objects:
		On entry : 
		On exit  : 
		Unchanged: 
 Data sizes:     COMRAM   BANK0   BANK1   BANK2   BANK3   BANK4   BANK5   BANK6   BANK7   BANK8   BANK9  BANK10  BANK11  BANK12  BANK13  BANK14
      Params:         4       0       0       0       0       0       0       0       0       0       0       0       0       0       0       0
      Locals:         2       0       0       0       0       0       0       0       0       0       0       0       0       0       0       0
      Temps:          1       0       0       0       0       0       0       0       0       0       0       0       0       0       0       0
      Totals:         7       0       0       0       0       0       0       0       0       0       0       0       0       0       0       0
Total ram usage:        7 bytes
 Hardware stack levels used:    1
 Hardware stack levels required when called:    2
 This function calls:
		Nothing
 This function is called by:
		_draw_full_time
		_draw_bear
 This function uses a non-reentrant model


 *************** function _ISR *****************
 Defined at:
		line 1389 in file "marco_clock.c"
 Parameters:    Size  Location     Type
		None
 Auto vars:     Size  Location     Type
  flankTime       2   24[COMRAM] int 
  diff            2    0        int 
  Up              1   26[COMRAM] unsigned char 
  sensorValue     1    0        unsigned char 
 Return value:  Size  Location     Type
		None               void
 Registers used:
		wreg, fsr2l, fsr2h, status,2, status,0, cstack
 Tracked objects:
		On entry : 
		On exit  : 
		Unchanged: 
 Data sizes:     COMRAM   BANK0   BANK1   BANK2   BANK3   BANK4   BANK5   BANK6   BANK7   BANK8   BANK9  BANK10  BANK11  BANK12  BANK13  BANK14
      Params:         0       0       0       0       0       0       0       0       0       0       0       0       0       0       0       0
      Locals:         3       0       0       0       0       0       0       0       0       0       0       0       0       0       0       0
      Temps:         16       0       0       0       0       0       0       0       0       0       0       0       0       0       0       0
      Totals:        19       0       0       0       0       0       0       0       0       0       0       0       0       0       0       0
Total ram usage:       19 bytes
 Hardware stack levels used:    1
 Hardware stack levels required when called:    1
 This function calls:
		_Busy_eep
		_Write_b_eep
		i2_delay_100ms
 This function is called by:
		Interrupt level 2
 This function uses a non-reentrant model


 *************** function _Busy_eep *****************
 Defined at:
		line 13 in file "plib/EEP/busy_eep.c"
 Parameters:    Size  Location     Type
		None
 Auto vars:     Size  Location     Type
		None
 Return value:  Size  Location     Type
		None               void
 Registers used:
		None
 Tracked objects:
		On entry : 
		On exit  : 
		Unchanged: 
 Data sizes:     COMRAM   BANK0   BANK1   BANK2   BANK3   BANK4   BANK5   BANK6   BANK7   BANK8   BANK9  BANK10  BANK11  BANK12  BANK13  BANK14
      Params:         0       0       0       0       0       0       0       0       0       0       0       0       0       0       0       0
      Locals:         0       0       0       0       0       0       0       0       0       0       0       0       0       0       0       0
      Temps:          0       0       0       0       0       0       0       0       0       0       0       0       0       0       0       0
      Totals:         0       0       0       0       0       0       0       0       0       0       0       0       0       0       0       0
Total ram usage:        0 bytes
 Hardware stack levels used:    1
 This function calls:
		Nothing
 This function is called by:
		_ISR
 This function uses a non-reentrant model


 *************** function _Write_b_eep *****************
 Defined at:
		line 50 in file "plib/EEP/write_B.c"
 Parameters:    Size  Location     Type
  badd            2    0[COMRAM] unsigned int 
  bdat            1    2[COMRAM] unsigned char 
 Auto vars:     Size  Location     Type
  GIE_BIT_VAL     1    4[COMRAM] unsigned char 
 Return value:  Size  Location     Type
		None               void
 Registers used:
		wreg, status,2, status,0
 Tracked objects:
		On entry : 
		On exit  : 
		Unchanged: 
 Data sizes:     COMRAM   BANK0   BANK1   BANK2   BANK3   BANK4   BANK5   BANK6   BANK7   BANK8   BANK9  BANK10  BANK11  BANK12  BANK13  BANK14
      Params:         3       0       0       0       0       0       0       0       0       0       0       0       0       0       0       0
      Locals:         1       0       0       0       0       0       0       0       0       0       0       0       0       0       0       0
      Temps:          1       0       0       0       0       0       0       0       0       0       0       0       0       0       0       0
      Totals:         5       0       0       0       0       0       0       0       0       0       0       0       0       0       0       0
Total ram usage:        5 bytes
 Hardware stack levels used:    1
 This function calls:
		Nothing
 This function is called by:
		_ISR
 This function uses a non-reentrant model


 *************** function i2_delay_100ms *****************
 Defined at:
		line 908 in file "marco_clock.c"
 Parameters:    Size  Location     Type
		None
 Auto vars:     Size  Location     Type
  delay_100ms     4    4[COMRAM] volatile long 
  delay_100ms     4    0[COMRAM] volatile long 
 Return value:  Size  Location     Type
		None               void
 Registers used:
		wreg, status,2, status,0
 Tracked objects:
		On entry : 
		On exit  : 
		Unchanged: 
 Data sizes:     COMRAM   BANK0   BANK1   BANK2   BANK3   BANK4   BANK5   BANK6   BANK7   BANK8   BANK9  BANK10  BANK11  BANK12  BANK13  BANK14
      Params:         0       0       0       0       0       0       0       0       0       0       0       0       0       0       0       0
      Locals:         8       0       0       0       0       0       0       0       0       0       0       0       0       0       0       0
      Temps:          0       0       0       0       0       0       0       0       0       0       0       0       0       0       0       0
      Totals:         8       0       0       0       0       0       0       0       0       0       0       0       0       0       0       0
Total ram usage:        8 bytes
 Hardware stack levels used:    1
 This function calls:
		Nothing
 This function is called by:
		_ISR
 This function uses a non-reentrant model



MODULE INFORMATION

Module		Function		Class		Link	Load	Size
shared
		i2_delay_100ms 		CODE           	1C36	0000	206
		__stringdata   		MEDIUMCONST    	7FC2	0000	61
		_font          		MEDIUMCONST    	79AA	0000	1560
		__initializatio		CODE           	1E86	0000	170

shared estimated size: 1997

marco_clock.c
		_init_hw       		CODE           	2432	0000	46
		_ISR           		CODE           	0008	0000	1206
		_draw_full_time		CODE           	04C2	0000	1524
		_main          		CODE           	1582	0000	576
		_SetPWM        		CODE           	2460	0000	36
		_draw_time     		CODE           	24D4	0000	10
		_clrscr        		CODE           	22B0	0000	94
		_ChipSelect    		CODE           	1950	0000	296
		_delay_100ms   		CODE           	1B68	0000	206
		_CLK_DELAY     		CODE           	24E2	0000	2
		_draw_bear     		CODE           	0AB6	0000	1350
		_draw_normal_ti		CODE           	12DC	0000	678
		_rot           		CODE           	2242	0000	110
		_draw_str      		CODE           	1D04	0000	198
		_CommandWriteHT		CODE           	1FEC	0000	172
		_OutputCLK_Puls		CODE           	24B8	0000	14
		_clear_time_are		CODE           	1F3A	0000	178
		_clear_bear    		CODE           	2140	0000	146
		_OutputA_74164 		CODE           	249E	0000	26
		_WriteHT1632C  		CODE           	1A78	0000	240
		_draw_row      		CODE           	17C2	0000	398
		_draw_char     		CODE           	0FFC	0000	736
		_SetHT1632C_As3		CODE           	236C	0000	74

marco_clock.c estimated size: 8316

plib/EEP/busy_eep.c
		_Busy_eep      		CODE           	24C6	0000	14

plib/EEP/busy_eep.c estimated size: 14

/Applications/microchip/xc8/v1.12/sources/memset.c
		_memset        		CODE           	23FE	0000	52

/Applications/microchip/xc8/v1.12/sources/memset.c estimated size: 52

/Applications/microchip/xc8/v1.12/sources/awmod.c
		___awmod       		CODE           	2098	0000	168

/Applications/microchip/xc8/v1.12/sources/awmod.c estimated size: 168

/Applications/microchip/xc8/v1.12/sources/awdiv.c
		___awdiv       		CODE           	1DCA	0000	188

/Applications/microchip/xc8/v1.12/sources/awdiv.c estimated size: 188

plib/EEP/write_B.c
		_Write_b_eep   		CODE           	23B6	0000	72

plib/EEP/write_B.c estimated size: 72

plib/EEP/read_B.c
		_Read_b_eep    		CODE           	2484	0000	26

plib/EEP/read_B.c estimated size: 26

